S0160000706F6D6F646F726F2D74696D65722E7372656351
S11300000C9434000C9451000C9451000C94510045
S11300100C9451000C9451000C9451000C94510018
S11300200C9451000C9451000C9451000C944C010C
S11300300C9451000C9451000C9451000C945100F8
S11300400C9451000C9451000C9451000C945100E8
S11300500C9451000C9451000C9451000C945100D8
S11300600C9451000C94510011241FBECFEFD8E022
S1130070DEBFCDBF11E0A0E0B1E0E6ECF2E002C0EB
S113008005900D92AA30B107D9F721E0AAE0B1E0BA
S113009001C01D92AF30B207E1F70E9415010C9424
S11300A061010C94000085B1846085B985B18B7FB2
S11300B085B9089585B1886085B985B1877F85B98B
S11300C0089585B18D7F85B985B1826085B90E9417
S11300D05A00089584B18E6384B90E94610085B189
S11300E08F7E85B908951F93CF93DF93182F0E94B5
S11300F06100C0E0D0E014C0812F90E00C2E02C05B
S1130100959587950A94E2F780FF04C085B18062D3
S113011085B903C085B18F7D85B90E9453002196AE
S1130120C830D1054CF30E945A00DF91CF911F9142
S113013008958BB18F778BB98BB18F7B8BB98BB1D2
S11301408F7D8BB98BB18F7E8BB908956A3050F453
S113015090E0E62FF0E0E050FF4F2081FC01E55FE6
S1130160FE4F208308958AB1806F8AB90E946A0085
S113017061E080E00E94A60062E081E00E94A600A7
S113018063E082E00E94A60064E083E00E94A6008F
S11301900895823099F018F4813031F00895833055
S11301A0C1F0843001F108950E94990080910B01FF
S11301B00E9473008BB180688BB908950E949900E6
S11301C080910C018E7F0E9473008BB180648BB987
S11301D008950E94990080910D010E9473008BB1D3
S11301E080628BB908950E94990080910E010E944B
S11301F073008BB180618BB9089583B7816083BF2D
S113020085B7806685BF8F7D85BF7894889583B7D1
S11302108E7F83BF089584B7877F84BFE0E6F0E0D4
S113022080818861808310820895E4E6F0E0808113
S11302308160808380818460808380818068808302
S11302408081806280838081826080830E940B0130
S1130250E1E8F0E080818C608083EFE6F0E080816B
S11302608260808384EF91E090938900809388007A
S113027083B7817F83BF0E94B300C1E0D0E0F894CC
S1130280C530D10514F0C1E0D0E08C2F0E94C90024
S113029021960E94FD00F3CF1F920F920FB60F928A
S11302A011248F9380910A018F5F80930A018D3707
S11302B011F410920A018F910F900FBE0F901F90AE
S10902C01895F894FFCF2D
S10D02C6039F250D9949411F0119FA
S9030000FC
